{
  "_format": "hh-sol-artifact-1",
  "contractName": "NFTMarketplace",
  "sourceName": "contracts/NFTMarketplace.sol",
  "abi": [
    {
      "inputs": [
        {
          "internalType": "address",
          "name": "_feeRecipient",
          "type": "address"
        }
      ],
      "stateMutability": "nonpayable",
      "type": "constructor"
    },
    {
      "inputs": [
        {
          "internalType": "address",
          "name": "owner",
          "type": "address"
        }
      ],
      "name": "OwnableInvalidOwner",
      "type": "error"
    },
    {
      "inputs": [
        {
          "internalType": "address",
          "name": "account",
          "type": "address"
        }
      ],
      "name": "OwnableUnauthorizedAccount",
      "type": "error"
    },
    {
      "inputs": [],
      "name": "ReentrancyGuardReentrantCall",
      "type": "error"
    },
    {
      "anonymous": false,
      "inputs": [
        {
          "indexed": true,
          "internalType": "uint256",
          "name": "listingId",
          "type": "uint256"
        },
        {
          "indexed": true,
          "internalType": "address",
          "name": "seller",
          "type": "address"
        }
      ],
      "name": "ListingCancelled",
      "type": "event"
    },
    {
      "anonymous": false,
      "inputs": [
        {
          "indexed": true,
          "internalType": "uint256",
          "name": "listingId",
          "type": "uint256"
        },
        {
          "indexed": true,
          "internalType": "address",
          "name": "seller",
          "type": "address"
        },
        {
          "indexed": true,
          "internalType": "address",
          "name": "nftContract",
          "type": "address"
        },
        {
          "indexed": false,
          "internalType": "uint256",
          "name": "tokenId",
          "type": "uint256"
        },
        {
          "indexed": false,
          "internalType": "address",
          "name": "paymentToken",
          "type": "address"
        },
        {
          "indexed": false,
          "internalType": "uint256",
          "name": "price",
          "type": "uint256"
        }
      ],
      "name": "NFTListed",
      "type": "event"
    },
    {
      "anonymous": false,
      "inputs": [
        {
          "indexed": true,
          "internalType": "uint256",
          "name": "listingId",
          "type": "uint256"
        },
        {
          "indexed": true,
          "internalType": "address",
          "name": "buyer",
          "type": "address"
        },
        {
          "indexed": true,
          "internalType": "address",
          "name": "seller",
          "type": "address"
        },
        {
          "indexed": false,
          "internalType": "uint256",
          "name": "price",
          "type": "uint256"
        },
        {
          "indexed": false,
          "internalType": "uint256",
          "name": "platformFee",
          "type": "uint256"
        }
      ],
      "name": "NFTSold",
      "type": "event"
    },
    {
      "anonymous": false,
      "inputs": [
        {
          "indexed": true,
          "internalType": "address",
          "name": "previousOwner",
          "type": "address"
        },
        {
          "indexed": true,
          "internalType": "address",
          "name": "newOwner",
          "type": "address"
        }
      ],
      "name": "OwnershipTransferred",
      "type": "event"
    },
    {
      "anonymous": false,
      "inputs": [
        {
          "indexed": false,
          "internalType": "uint256",
          "name": "newFeeBps",
          "type": "uint256"
        }
      ],
      "name": "PlatformFeeUpdated",
      "type": "event"
    },
    {
      "inputs": [
        {
          "internalType": "uint256",
          "name": "listingId",
          "type": "uint256"
        }
      ],
      "name": "buyNFT",
      "outputs": [],
      "stateMutability": "nonpayable",
      "type": "function"
    },
    {
      "inputs": [
        {
          "internalType": "uint256",
          "name": "listingId",
          "type": "uint256"
        }
      ],
      "name": "cancelListing",
      "outputs": [],
      "stateMutability": "nonpayable",
      "type": "function"
    },
    {
      "inputs": [
        {
          "internalType": "address",
          "name": "nftContract",
          "type": "address"
        },
        {
          "internalType": "uint256",
          "name": "tokenId",
          "type": "uint256"
        },
        {
          "internalType": "address",
          "name": "paymentToken",
          "type": "address"
        },
        {
          "internalType": "uint256",
          "name": "price",
          "type": "uint256"
        }
      ],
      "name": "createListing",
      "outputs": [
        {
          "internalType": "uint256",
          "name": "",
          "type": "uint256"
        }
      ],
      "stateMutability": "nonpayable",
      "type": "function"
    },
    {
      "inputs": [],
      "name": "feeRecipient",
      "outputs": [
        {
          "internalType": "address",
          "name": "",
          "type": "address"
        }
      ],
      "stateMutability": "view",
      "type": "function"
    },
    {
      "inputs": [
        {
          "internalType": "uint256",
          "name": "listingId",
          "type": "uint256"
        }
      ],
      "name": "getListing",
      "outputs": [
        {
          "components": [
            {
              "internalType": "address",
              "name": "seller",
              "type": "address"
            },
            {
              "internalType": "address",
              "name": "nftContract",
              "type": "address"
            },
            {
              "internalType": "uint256",
              "name": "tokenId",
              "type": "uint256"
            },
            {
              "internalType": "address",
              "name": "paymentToken",
              "type": "address"
            },
            {
              "internalType": "uint256",
              "name": "price",
              "type": "uint256"
            },
            {
              "internalType": "bool",
              "name": "active",
              "type": "bool"
            }
          ],
          "internalType": "struct NFTMarketplace.Listing",
          "name": "",
          "type": "tuple"
        }
      ],
      "stateMutability": "view",
      "type": "function"
    },
    {
      "inputs": [
        {
          "internalType": "uint256",
          "name": "listingId",
          "type": "uint256"
        }
      ],
      "name": "isListingActive",
      "outputs": [
        {
          "internalType": "bool",
          "name": "",
          "type": "bool"
        }
      ],
      "stateMutability": "view",
      "type": "function"
    },
    {
      "inputs": [],
      "name": "listingCounter",
      "outputs": [
        {
          "internalType": "uint256",
          "name": "",
          "type": "uint256"
        }
      ],
      "stateMutability": "view",
      "type": "function"
    },
    {
      "inputs": [
        {
          "internalType": "uint256",
          "name": "",
          "type": "uint256"
        }
      ],
      "name": "listings",
      "outputs": [
        {
          "internalType": "address",
          "name": "seller",
          "type": "address"
        },
        {
          "internalType": "address",
          "name": "nftContract",
          "type": "address"
        },
        {
          "internalType": "uint256",
          "name": "tokenId",
          "type": "uint256"
        },
        {
          "internalType": "address",
          "name": "paymentToken",
          "type": "address"
        },
        {
          "internalType": "uint256",
          "name": "price",
          "type": "uint256"
        },
        {
          "internalType": "bool",
          "name": "active",
          "type": "bool"
        }
      ],
      "stateMutability": "view",
      "type": "function"
    },
    {
      "inputs": [],
      "name": "owner",
      "outputs": [
        {
          "internalType": "address",
          "name": "",
          "type": "address"
        }
      ],
      "stateMutability": "view",
      "type": "function"
    },
    {
      "inputs": [],
      "name": "platformFeeBps",
      "outputs": [
        {
          "internalType": "uint256",
          "name": "",
          "type": "uint256"
        }
      ],
      "stateMutability": "view",
      "type": "function"
    },
    {
      "inputs": [],
      "name": "renounceOwnership",
      "outputs": [],
      "stateMutability": "nonpayable",
      "type": "function"
    },
    {
      "inputs": [
        {
          "internalType": "address",
          "name": "newOwner",
          "type": "address"
        }
      ],
      "name": "transferOwnership",
      "outputs": [],
      "stateMutability": "nonpayable",
      "type": "function"
    },
    {
      "inputs": [
        {
          "internalType": "address",
          "name": "newRecipient",
          "type": "address"
        }
      ],
      "name": "updateFeeRecipient",
      "outputs": [],
      "stateMutability": "nonpayable",
      "type": "function"
    },
    {
      "inputs": [
        {
          "internalType": "uint256",
          "name": "newFeeBps",
          "type": "uint256"
        }
      ],
      "name": "updatePlatformFee",
      "outputs": [],
      "stateMutability": "nonpayable",
      "type": "function"
    }
  ],
  "bytecode": "0x608060405260fa60045534801561001557600080fd5b5060405161110738038061110783398101604081905261003491610137565b6001600055338061006057604051631e4fbdf760e01b8152600060048201526024015b60405180910390fd5b610069816100e5565b506001600160a01b0381166100c05760405162461bcd60e51b815260206004820152601560248201527f496e76616c69642066656520726563697069656e7400000000000000000000006044820152606401610057565b600580546001600160a01b0319166001600160a01b0392909216919091179055610167565b600180546001600160a01b038381166001600160a01b0319831681179093556040519116919082907f8be0079c531659141344cd1fd0a4f28419497f9722a3daafe3b4186f6b6457e090600090a35050565b60006020828403121561014957600080fd5b81516001600160a01b038116811461016057600080fd5b9392505050565b610f91806101766000396000f3fe608060405234801561001057600080fd5b50600436106100ea5760003560e01c806378e30c911161008c578063b4a1535511610066578063b4a15355146102d1578063de74e57b146102e4578063f160d36914610378578063f2fde38b1461038b57600080fd5b806378e30c91146102775780638da5cb5b146102ad578063aa0b5988146102be57600080fd5b806346904840116100c8578063469048401461022857806351ed8288146102535780636c2c9c7d14610266578063715018a61461026f57600080fd5b8063107a274a146100ef57806322dcd13e146101fc578063305a67a814610213575b600080fd5b61019a6100fd366004610e01565b6040805160c081018252600080825260208201819052918101829052606081018290526080810182905260a081019190915250600090815260026020818152604092839020835160c08101855281546001600160a01b0390811682526001830154811693820193909352928101549383019390935260038301541660608201526004820154608082015260059091015460ff16151560a082015290565b6040516101f3919081516001600160a01b03908116825260208084015182169083015260408084015190830152606080840151909116908201526080808301519082015260a09182015115159181019190915260c00190565b60405180910390f35b61020560045481565b6040519081526020016101f3565b610226610221366004610e01565b61039e565b005b60055461023b906001600160a01b031681565b6040516001600160a01b0390911681526020016101f3565b610226610261366004610e01565b61049b565b61020560035481565b610226610806565b61029d610285366004610e01565b60009081526002602052604090206005015460ff1690565b60405190151581526020016101f3565b6001546001600160a01b031661023b565b6102266102cc366004610e01565b61081a565b6102056102df366004610e2f565b61089e565b61033a6102f2366004610e01565b60026020819052600091825260409091208054600182015492820154600383015460048401546005909401546001600160a01b03938416958416949293909116919060ff1686565b604080516001600160a01b039788168152958716602087015285019390935293166060830152608082019290925290151560a082015260c0016101f3565b610226610386366004610e77565b610ca9565b610226610399366004610e77565b610d1d565b6103a6610d58565b6000818152600260205260409020600581015460ff166104025760405162461bcd60e51b81526020600482015260126024820152714c697374696e67206e6f742061637469766560701b60448201526064015b60405180910390fd5b80546001600160a01b031633146104545760405162461bcd60e51b815260206004820152601660248201527513db9b1e481cd95b1b195c8818d85b8818d85b98d95b60521b60448201526064016103f9565b60058101805460ff19169055604051339083907f8e25282255ab31897df2b0456bb993ac7f84d376861aefd84901d2d63a7428a290600090a3506104986001600055565b50565b6104a3610d58565b6000818152600260205260409020600581015460ff166104fa5760405162461bcd60e51b81526020600482015260126024820152714c697374696e67206e6f742061637469766560701b60448201526064016103f9565b80546001600160a01b031633036105535760405162461bcd60e51b815260206004820152601960248201527f53656c6c65722063616e6e6f7420627579206f776e204e46540000000000000060448201526064016103f9565b6000612710600454836004015461056a9190610eb1565b6105749190610ece565b905060008183600401546105889190610ef0565b600384015484546040516323b872dd60e01b81523360048201526001600160a01b03918216602482015260448101849052929350169081906323b872dd906064016020604051808303816000875af11580156105e8573d6000803e3d6000fd5b505050506040513d601f19601f8201168201806040525081019061060c9190610f03565b6106585760405162461bcd60e51b815260206004820152601860248201527f5061796d656e7420746f2073656c6c6572206661696c6564000000000000000060448201526064016103f9565b8215610727576005546040516323b872dd60e01b81523360048201526001600160a01b03918216602482015260448101859052908216906323b872dd906064016020604051808303816000875af11580156106b7573d6000803e3d6000fd5b505050506040513d601f19601f820116820180604052508101906106db9190610f03565b6107275760405162461bcd60e51b815260206004820152601c60248201527f506c6174666f726d20666565207472616e73666572206661696c65640000000060448201526064016103f9565b600184015484546002860154604051632142170760e11b81526001600160a01b03928316600482015233602482015260448101919091529116906342842e0e90606401600060405180830381600087803b15801561078457600080fd5b505af1158015610798573d6000803e3d6000fd5b5050505060058401805460ff191690558354600485015460408051918252602082018690526001600160a01b0390921691339188917f5fafad85dec201c2e73b6a2bef6351129304a624ea8720ecd04cd7f04d83bc39910160405180910390a4505050506104986001600055565b61080e610d82565b6108186000610daf565b565b610822610d82565b6103e88111156108635760405162461bcd60e51b815260206004820152600c60248201526b08ccaca40e8dede40d0d2ced60a31b60448201526064016103f9565b60048190556040518181527f45610d581145924dd7090a5017e5f2b1d6f42213bb2e95707ff86846bbfcb1ca9060200160405180910390a150565b60006108a8610d58565b600082116108ec5760405162461bcd60e51b815260206004820152601160248201527005072696365206d757374206265203e203607c1b60448201526064016103f9565b6001600160a01b0385166109395760405162461bcd60e51b8152602060048201526014602482015273125b9d985b1a59081391950818dbdb9d1c9858dd60621b60448201526064016103f9565b6001600160a01b0383166109875760405162461bcd60e51b815260206004820152601560248201527424b73b30b634b2103830bcb6b2b73a103a37b5b2b760591b60448201526064016103f9565b6040516331a9108f60e11b815260048101859052859033906001600160a01b03831690636352211e90602401602060405180830381865afa1580156109d0573d6000803e3d6000fd5b505050506040513d601f19601f820116820180604052508101906109f49190610f25565b6001600160a01b031614610a3a5760405162461bcd60e51b815260206004820152600d60248201526c2737ba1027232a1037bbb732b960991b60448201526064016103f9565b60405163020604bf60e21b81526004810186905230906001600160a01b0383169063081812fc90602401602060405180830381865afa158015610a81573d6000803e3d6000fd5b505050506040513d601f19601f82011682018060405250810190610aa59190610f25565b6001600160a01b03161480610b23575060405163e985e9c560e01b81523360048201523060248201526001600160a01b0382169063e985e9c590604401602060405180830381865afa158015610aff573d6000803e3d6000fd5b505050506040513d601f19601f82011682018060405250810190610b239190610f03565b610b6f5760405162461bcd60e51b815260206004820152601860248201527f4d61726b6574706c616365206e6f7420617070726f766564000000000000000060448201526064016103f9565b6003805460009182610b8083610f42565b909155506040805160c081018252338082526001600160a01b038b811660208085018281528587018e81528d851660608801908152608088018e8152600160a08a0181815260008d81526002978890528c90209a518b54908a166001600160a01b0319918216178c559551918b018054928a1692871692909217909155925194890194909455516003880180549190961692169190911790935551600485015590516005909301805493151560ff199094169390931790925591519293509183907f1e25fc8c928dd31a9c3eaae05546a0ccbbd49ce772d96d508940bd80708ade0c90610c8c908b908b908b909283526001600160a01b03919091166020830152604082015260600190565b60405180910390a4915050610ca16001600055565b949350505050565b610cb1610d82565b6001600160a01b038116610cfb5760405162461bcd60e51b8152602060048201526011602482015270125b9d985b1a59081c9958da5c1a595b9d607a1b60448201526064016103f9565b600580546001600160a01b0319166001600160a01b0392909216919091179055565b610d25610d82565b6001600160a01b038116610d4f57604051631e4fbdf760e01b8152600060048201526024016103f9565b61049881610daf565b600260005403610d7b57604051633ee5aeb560e01b815260040160405180910390fd5b6002600055565b6001546001600160a01b031633146108185760405163118cdaa760e01b81523360048201526024016103f9565b600180546001600160a01b038381166001600160a01b0319831681179093556040519116919082907f8be0079c531659141344cd1fd0a4f28419497f9722a3daafe3b4186f6b6457e090600090a35050565b600060208284031215610e1357600080fd5b5035919050565b6001600160a01b038116811461049857600080fd5b60008060008060808587031215610e4557600080fd5b8435610e5081610e1a565b9350602085013592506040850135610e6781610e1a565b9396929550929360600135925050565b600060208284031215610e8957600080fd5b8135610e9481610e1a565b9392505050565b634e487b7160e01b600052601160045260246000fd5b8082028115828204841417610ec857610ec8610e9b565b92915050565b600082610eeb57634e487b7160e01b600052601260045260246000fd5b500490565b81810381811115610ec857610ec8610e9b565b600060208284031215610f1557600080fd5b81518015158114610e9457600080fd5b600060208284031215610f3757600080fd5b8151610e9481610e1a565b600060018201610f5457610f54610e9b565b506001019056fea2646970667358221220030bab4b02f87f1ddb0c681b5edaaabecdc661b9698a3c9d21bb77b6f7ab84d364736f6c63430008140033",
  "linkReferences": {},
  "deployedLinkReferences": {}
}